:060000000A128A11F02F24
:10089C007E088A007F0882004E240A128A1180008A
:1008AC00840A04087D0603190034FF0A0319FE0AA2
:1008BC00522C1F083F3940389F00C3309F051F142E
:1008CC009F14831203139F1C6D2C0000672C1E08B1
:1008DC00F30083161E08F2007308F1007208F00092
:1008EC000800FB01F91F812CF809F909F80A031912
:1008FC00F90AFB01FB0A7808F0007908F100F20113
:10090C008E30F3007B08F4000A128A11012570085E
:10091C00F8007108F9007208FA0008004A08490446
:10092C00480403199B2C8030CA064B08F8004C086D
:10093C00F9004D08FA004808FB004908FC004A0879
:10094C00FD000A128A11F52678088312C80079086E
:10095C00C9007A08CA000800013403340234063492
:10096C0004340C340834093408340C34043406349C
:10097C000234033401340934033406340C3409349E
:10098C000C3406340334093401340234043408348E
:10099C00083404340234013402340034F21FE32CE2
:1009AC007008003CF0007108031C710F003CF10052
:1009BC007208031C720F803CF200F51FF22C7308B6
:1009CC00003CF3007408031C740F003CF400750821
:1009DC00031C750F803CF5008030F2068030F50664
:1009EC0075087202031D080074087102031D0800CB
:1009FC0073087002080073080319092D720871043A
:100A0C007004031D1C2D0030F0000030F10000308C
:100A1C00F20008000130F5007508F30701300310EF
:100A2C00F20CF10CF00CFF3E031D152DFE3072057F
:100A3C000319372D102D0130F5007508F30701301F
:100A4C00F007003003180130F107003003180130B3
:100A5C00F20701300310F20CF10CF00CFF3E031DF9
:100A6C00302DFF30720503194A2D212D02307302EF
:100A7C00031C4C2D0130F30201300310F00DF10D6D
:100A8C00F20DFF3E031D432DF11F3C2D7318542D09
:100A9C00FF30F0057F30F105FF30F2050310F30C49
:100AAC007308F500F601F70110300310F50DF60D83
:100ABC00F70DFF3E031D5B2D7508F0047608F1045D
:100ACC007708F204740803190800F21708004208AA
:100ADC00C8004308C9004408CA000310490D4A0D58
:100AEC00CB004B08031D812D0030C2000030C30029
:100AFC000030C40008004508C8004608C900470873
:100B0C00CA000310490D4A0DD0005008031D952D45
:100B1C000030C2000030C3000030C4000800500890
:100B2C007B3EC8004808CB074408D0004708C800E3
:100B3C004808D0068030C8004808D005C317C6172F
:100B4C00FF30C505FF30C6050030C7050030CC00AE
:100B5C000030CD000030CE000730CF00421CC42D39
:100B6C004508CC07460803110318460A031DCD0798
:100B7C00470803110318470A031DCE070130031061
:100B8C00C40CC30CC20CFF3E031DC52D0130031059
:100B9C00C50DC60DC70DFF3E031DCD2D0130CF0277
:100BAC00031DB42D0930CF00421CEA2D4508CC079B
:100BBC00460803110318460A031DCD074708031105
:100BCC000318470A031DCE0701300310C40CC30CD5
:100BDC00C20CFF3E031DEB2D01300310CE0CCD0CCF
:100BEC00CC0CFF3E031DF32D0130CF02031DDA2D7B
:100BFC004C08F0004D08F1004E08F2004B08F300D1
:100C0C005008F4000A128A11012570088312C200E0
:100C1C007108C3007208C4000800831686010130F5
:100C2C0003178800803003139F008312DE01DF015D
:100C3C000430D6000030D7000030DB000030DC0080
:100C4C000030DD002C30C200B430C3003E30C40094
:100C5C000A128A115F240A128A117108F9007008AD
:100C6C00F8000A128A1177240A128A117808831262
:100C7C00C5007908C6007A08C7000A128A116D25CA
:100C8C000A128A114208D3004308D4004408D50044
:100C9C005B08C8005C08C9005D08CA005308CB009B
:100CAC005408CC005508CD000A128A1194240A125B
:100CBC008A114808D8004908D9004A08DA000030DF
:100CCC00F0004030F1004030F2005808F3005908B1
:100CDC00F4005A08F5000A128A11D4240A128A1157
:100CEC000318A82E033083120313D2009730D100BF
:100CFC00D10B7E2ED20B7E2E831203135E08343E54
:100D0C008400831300088600EB30F8003330F900C0
:100D1C003E30FA005B08FB005C08FC005D08FD003F
:100D2C000A128A11F5260A128A1178088312DB003E
:100D3C007908DC007A08DD000130DE070318DF0AD1
:100D4C000030DF075808F0005908F1005A08F2008B
:100D5C000030F3004030F400C030F5000A128A1164
:100D6C00D4240A128A110318EA2E033083120313B7
:100D7C00D2009730D100D10BC12ED20BC12E8312D1
:100D8C0003135E08303E8400831300088600EB30AA
:100D9C00C8003330C9003E30CA005B08CB005C0889
:100DAC00CC005D08CD000A128A1194240A128A1113
:100DBC004808DB004908DC004A08DD000130DE078A
:100DCC000318DF0A0030DF0757085F06031DF02EFB
:100DDC0056085E06031D282EDE01DF01282E78083A
:100DEC00C2007908C3007A08C4000310430D440DF7
:100DFC00C7007B08C2007C08C3007D08C400031038
:100E0C00430D440DC60047080319182F4608470226
:100E1C0003181F2F4608C2004708C20219304202AD
:100E2C00031C1F2F7B08F8007C08F9007D08FA00D2
:100E3C0008004608031908004708460203182E2F1D
:100E4C004708C2004608C2021930420203180800C3
:100E5C000630C500FA1BC517FD1B4517F917FF30E7
:100E6C00F805FF30F9050030FA05FC17FF30FB05DB
:100E7C00FF30FC050030FD054608470203186C2FB7
:100E8C0001300310FB0DFC0DFD0DFF3E031D472F24
:100E9C000130C602460847060319672F0130C50208
:100EAC00450807390319672F462F01300310FA0C38
:100EBC00F90CF80CFF3E031D5C2F0130C2004208F8
:100ECC00C707470846060319952F5B2F47084602AC
:100EDC000318952F01300310F80DF90DFA0DFF3E94
:100EEC00031D712F0130C702460847060319912FC5
:100EFC000130C502450807390319912F702F0130B5
:100F0C000310FD0CFC0CFB0CFF3E031D862F013067
:100F1C00C2004208C60747084606031D852FC51F99
:100F2C00A72FFF30F806FF30F906FF30FA06013024
:100F3C00F807003003180130F907003003180130AE
:100F4C00FA07451FB92FFF30FB06FF30FC06FF30B8
:100F5C00FD060130FB07003003180130FC070030A0
:100F6C0003180130FD07C5017808FB077908031148
:100F7C000318790A031DFC077A08031103187A0A6F
:100F8C00031DFD07FD1FDC2FFF30FB06FF30FC06A9
:100F9C00FF30FD060130FB07003003180130FC0761
:100FAC00003003180130FD07C501C50A7B08F000AD
:100FBC007C08F1007D08F2004708F3004508F400B6
:100FCC000A128A1101257008F8007108F9007208DC
:100FDC00FA00080083134230FD000430FE00B230EA
:100FEC00FF00203084000A128A11522483010A1255
:040FFC008A11132E15
:04400E00D420FF3F7C
:00000001FF
