:060000000A128A11F02F24
:100D8C00FC346034DA34F2346634B634BE34E034D5
:100D9C00FE34E6347E088A007F088200D0260A12D0
:100DAC008A118000840A04087D0603190034FF0AA6
:100DBC000319FE0AD42E8030831603139F0083126E
:100DCC001F083F3940389F007008F200F20DF20DF9
:100DDC001F087206C33972069F001F149F148312DA
:100DEC0003139F1CFB2E0000F52E1E08F400831627
:100DFC001E08F3007408F1007308F0000800831655
:100E0C0086018701FF30031788000030F000F100E5
:100E1C000A128A11E1260A128A117108FD00700863
:100E2C00FC00CC30F7000030F8007D08FA007C089C
:100E3C00F9000A128A1196270A128A117708203EA5
:100E4C0084008313000886001530F7000030F8008A
:100E5C007D08F3007C08F200CC30F0000030F1008B
:100E6C000A128A114B270A128A117108FA007008AB
:100E7C00F9000A128A1196270A128A117708203E65
:100E8C0084008313000887000B2FF601F31F552FE6
:100E9C00F209F309F20A0319F30AF601F60AF11F33
:100EAC005C2FF009F109F00A0319F10A70087104BA
:100EBC000319892FF501F50AF11B702F013003106E
:100ECC00F00DF10DFF3E031D652F0130F400740889
:100EDC00F507622F71087302031D762F70087202DA
:100EEC00031C7E2F7008F2027108031CF303F3023B
:100EFC0001300310F10CF00CFF3E031D7F2F01306D
:100F0C00F502031D702F76080319912FF209F309CE
:100F1C00F20A0319F30A7308F1007208F0000800D2
:100F2C008312AB01F81FA12FF709F809F70A03196F
:100F3C00F80AAB01AB0AFA1FAC2FF909FA09F90A46
:100F4C000319FA0A0130FB007B08AB06AC01AD01BA
:100F5C00770878040319E32FAA01AA0AF81BC22FF9
:100F6C0001300310F70DF80DFF3E031DB72F0130B4
:100F7C00FB007B08AA07B42F01300310AC0DAD0D9C
:100F8C00FF3E031DC32F78087A02031DCF2F77086D
:100F9C007902031CD82F7708F9027808031CFA038E
:100FAC00FA022C1401300310F80CF70CFF3E031D51
:100FBC00D92F0130AA02031DC22F2B080319EB2FC6
:100FCC00AC09AD09AC0A0319AD0A2D08F8002C08C0
:100FDC00F700080083132A30FD000630FE00C630EF
:100FEC00FF00203084000A128A11D42683010A12D1
:040FFC008A11052F22
:04400E00D420FF3F7C
:00000001FF
