:060000000A128A11E42F30
:100F3800E8340334FC346034DA34F2346634B634DA
:100F4800BE34E034FE34E6347E088A007F0882002E
:100F5800A8270A128A118000840A04087D0603194A
:100F68000034FF0A0319FE0AAC2F83168601F30129
:100F7800F4017308203E84008313000883120313CE
:100F880086000630F2001330F100AD30F000F00BAF
:100F9800CB2FF10BCB2FF20BCB2FD22F0130F30736
:100FA8000318F40A0030F4077408803AFF00803010
:100FB8007F02031DE12F0A3073020318BB2FBD2FD8
:100FC80083132A30FD000730FE009E30FF002030DA
:100FD80084000A128A11AC270A128A110A128A118D
:100FE8009C270A128A11F5000A128A119D27F60019
:080FF80083010A128A11B92FCE
:04400E00D420FF3F7C
:00000001FF
