:060000000A128A11B42F60
:100ED80008340C340434063402340334013409343D
:100EE8000C3406340334093408340434023401342D
:100EF800053400347E088A007F0882007E270A12A3
:100F08008A118000840A04087D0603190034FF0A48
:100F18000319FE0A822F83168601FC01FD017C0855
:100F2800703E840000088312031386000730FB001C
:100F38007D30FA00FA0B9E2FFB0B9E2F0130FC0729
:100F48000318FD0A0030FD077D08803AFF00803055
:100F58007F02031DB12F04307C020318912F932FB9
:100F680083132830FD000730FE006C30FF0020306E
:100F780084000A128A1182270A128A110A128A1117
:100F880074270A128A11F0000A128A1175270A12A8
:100F98008A11F1000A128A1176270A128A11F200C0
:100FA8000A128A1177270A128A11F3000A128A1183
:100FB80078270A128A11F4000A128A1179270A126C
:100FC8008A11F5000A128A117A270A128A11F60084
:100FD8000A128A117B270A128A11F7000A128A114B
:100FE8007C270A128A11F8000A128A117D27F90053
:080FF80083010A128A118F2FF8
:04400E00D420FF3F7C
:00000001FF
