:060000000A128A11F22F22
:100F6A009034013401308316850086010317880105
:100F7A008901ED2F06140330F2000830F1007730B2
:100F8A00F000F00BC62FF10BC62FF20BC62F8312FF
:100F9A00031306100330F2000830F1007730F00036
:100FAA00F00BD52FF10BD52FF20BD52F831203138C
:100FBA0006140330F2000830F1007730F000F00B2D
:100FCA00E42FF10BE42FF20BE42F83120313061024
:100FDA00831203130518BF2FEC2F0A128A11B527A3
:100FEA000A128A11F3000A128A11B627F400830141
:060FFA000A128A11B72F54
:04400E00D420FF3F7C
:00000001FF
