:060000000A128A11F02F24
:100F0600FC346034DA34F2346634B634BE34E03459
:100F1600FE34E6347E088A007F0882008D270A1296
:100F26008A118000840A04087D0603190034FF0A2A
:100F36000319FE0A912FF401F501F001F101F20106
:100F4600F301033083168500860103178801831297
:100F56000313051CBC2F70087104031DBC2F013040
:100F6600F4070318F50A0030F5070130F0000030E9
:100F7600F1000518C02FF001F101851CD02F720871
:100F86007304031DD02FFF30F4070318F50AFF3052
:100F9600F5070130F2000030F3008518D42FF20176
:100FA600F3017508803AFF0080307F02031DDD2FB4
:100FB6000A307402031CE12FF401F501F51FE72F37
:100FC6000930F4000030F5007408203E84008313D5
:100FD6000008831203138600AA2F83132A30FD000C
:100FE6000730FE008330FF00203084000A128A1189
:0A0FF600912783010A128A119E2F31
:04400E00D420FF3F7C
:00000001FF
