:060000000A128A11E62F2E
:100D1200FC346034DA34F2346634B634BE347E08DD
:100D22008A007F08820090260A128A118000840AB3
:100D320004087D0603190034FF0A0319FE0A942EE3
:100D42001F3083168500860103178801642F051D55
:100D5200AC2E0130AD2E0030F000051CB22E013059
:100D6200B32E003070060319B82E0130B92E0030B0
:100D7200F100F2017108AB007208AC00050CF00042
:100D8200700C0139F10005080139FF3A7105F200D2
:100D9200F3017208FC007308FD00851DD22E01309C
:100DA200D32E0030F000851CD82E0130D92E003011
:100DB20070060319DE2E0130DF2E0030F100F20141
:100DC2007C087106F3007D087206F4007308A9001E
:100DD2007408AA00851DEF2E0130F02E0030F000BD
:100DE200050C01397C06031DF82E0130F92E003066
:100DF2007005F100F201050C0139F3007309F400EA
:100E0200F501F5097C087405F6007D087505F70003
:100E120071087604F80072087704F9007808A700D0
:100E22007908A8002808F1002708F0000310F00D47
:100E3200F10D0310F00DF10D2A08F3002908F2005C
:100E42000310F20DF30D70087207F4007108031815
:100E5200710A7307F5002B087407FA002C080318AF
:100E62002C0A7507FB007B08803AFF0080307F0266
:100E7200031D3D2F04307A02031C5C2F7B08F10016
:100E82007A08F000F009F1097008083EFA007108CA
:100E92000318013EFF3EFB007A08013EFA007B0880
:100EA2000318013E003EFB007A08203E84008313B3
:100EB2000008013E612F7A08203E84008313000857
:100EC20083120313860083120313051AA82E051D2D
:100ED2006C2F01306D2F0030F000051C722F013095
:100EE200732F003070060319782F0130792F0030EC
:100EF200F100F2017108AB007208AC00050CF000C1
:100F0200700C0139F100050801397105F200F30195
:100F12007208FC007308FD00851D912F0130922F8D
:100F22000030F000851C972F0130982F003070069A
:100F320003199D2F01309E2F0030F100F2017C0831
:100F42007106F3007D087206F4007308A9007408A4
:100F5200AA00851DAE2F0130AF2F0030F000050C26
:100F620001397C060319B72F0130B82F0030700504
:100F7200F100050C01397C057104F200F3017208DD
:100F8200A7007308A8002808F1002708F000031042
:100F9200F00DF10D0310F00DF10D2A08F3002908F0
:100FA200F2000310F20DF30D70087207F4007108DD
:100FB2000318710A7307F5002B087407FA002C084E
:100FC20003182C0A7507FB005C2F83132730FD00E2
:100FD2000630FE008930FF00203084000A128A1198
:100FE2009426A701A801A901AA01AB01AC01FA014B
:0E0FF200FB01FC01FD0183010A128A11A12EF0
:04400E00D420FF3F7C
:00000001FF
