:060000000A128A11F02F24
:100EF200FC346034DA34F2346634B634BE34E0346E
:100F0200FE34E6347E088A007F08820083270A12B4
:100F12008A118000840A04087D0603190034FF0A3E
:100F22000319FE0A872FF301F401033083168500AB
:100F320086010317880183120313051CB92F02309F
:100F4200F2000430F100BA30F000F00BA62FF10BE2
:100F5200A62FF20BA62F000083120313051CB32F3A
:100F62000000AD2F0130F3070318F40A0030F40734
:100F7200851CD42F0230F2000430F100BA30F000A8
:100F8200F00BC12FF10BC12FF20BC12F0000831206
:100F92000313851CCE2F0000C82FFF30F307031860
:100FA200F40AFF30F4077408803AFF0080307F02B1
:100FB200031DDD2F0A307302031CE12FF301F4013C
:100FC200F41FE72F0930F3000030F4007308203ECD
:100FD2008400831300088312031386009C2F83135B
:100FE2002A30FD000730FE007930FF0020308400F7
:0E0FF2000A128A11872783010A128A11942F8E
:04400E00D420FF3F7C
:00000001FF
