:060000000A128A110E280D
:10000800FE00030EF3000A08F4007F08F5000A1248
:100018008A1115280A128A11112883010A128A11D5
:1000280054288B1C4B28F601F7018312031306157D
:100038000230F2000430F100BA30F000F00B222850
:10004800F10B2228F20B2228000083120313061159
:100058000230F2000430F100BA30F000F00B322820
:10006800F10B3228F20B322800000130F607031892
:10007800F70A0030F7077708803AFF0080307F02E0
:10008800031D482805307602031C19288B107508B3
:10009800FF0074088A00730E8300FE0E7E0E0900AE
:1000A80001308316860003178901031301178B1784
:1000B8000B168B1083120313861403308312031359
:1000C800A2008A30A1005530A000A00B6928A10B1E
:1000D8006928A20B69288312031386100330831240
:1000E8000313A2008A30A1005530A000A00B7A2883
:1000F800A10B7A28A20B7A285E2800308A0004080F
:0E010800840A82070034C8340034F434013411
:04400E00D420FF3F7C
:00000001FF
